:020000040800F2
:1000000000500020912500089D0B00089F0B000860
:10001000A10B0008A30B0008A50B000800000000BE
:10002000000000000000000000000000A70B000816
:10003000A90B000800000000AB0B0008AD0B000886
:10004000D9250008D9250008D9250008D925000898
:10005000D9250008D9250008D9250008D925000888
:10006000D9250008D9250008D9250008D925000878
:10007000D9250008D9250008D9250008B50B0008A6
:10008000D9250008D9250008D9250008D925000858
:10009000D9250008D9250008D9250008C50B000876
:1000A000D9250008D9250008D9250008D925000838
:1000B000D9250008D9250008D9250008D925000828
:1000C000D9250008D9250008D9250008D925000818
:1000D000D9250008D10B0008D9250008D92500082A
:1000E000D9250008D9250008D925000800000000FE
:1000F0000000000000000000000000000000000000
:0C01000000000000000000005FF808F1A3
:1001100010B5054C237833B9044B13B10448AFF341
:1001200000800123237010BD70000020000000003B
:100130005427000808B5034B1BB103490348AFF32C
:10014000008008BD00000000740000205427000853
:10015000034613F8012B002AFBD1181A0138704707
:1001600081F0004102E000BF83F0004330B54FEA68
:1001700041044FEA430594EA050F08BF90EA020FD5
:100180001FBF54EA000C55EA020C7FEA645C7FEA68
:10019000655C00F0E2804FEA5454D4EB5555B8BF8B
:1001A0006D420CDD2C4480EA020281EA030382EAFC
:1001B000000083EA010180EA020281EA0303362D8E
:1001C00088BF30BD11F0004F4FEA01314FF4801C61
:1001D0004CEA113102D0404261EB410113F0004F73
:1001E0004FEA03334CEA133302D0524263EB43032A
:1001F00094EA050F00F0A780A4F10104D5F1200EC8
:100200000DDB02FA0EFC22FA05F2801841F1000122
:1002100003FA0EF2801843FA05F359410EE0A5F1F6
:1002200020050EF1200E012A03FA0EFC28BF4CF027
:10023000020C43FA05F3C01851EBE37101F00045DD
:1002400007D54FF0000EDCF1000C7EEB00006EEBEA
:100250000101B1F5801F1BD3B1F5001F0CD3490874
:100260005FEA30004FEA3C0C04F101044FEA4452CB
:1002700012F5800F80F09A80BCF1004F08BF5FEA52
:10028000500C50F1000041EB045141EA050130BD32
:100290005FEA4C0C404141EB0101013C28BFB1F544
:1002A000801FE9D291F0000F04BF01460020B1FA8F
:1002B00081F308BF2033A3F10B03B3F120020CDA62
:1002C0000C3208DD02F1140CC2F10C0201FA0CF040
:1002D00021FA02F10CE002F11402D8BFC2F1200CA5
:1002E00001FA02F120FA0CFCDCBF41EA0C0190405B
:1002F000E41AA2BF01EB0451294330BD6FEA0404A4
:100300001F3C1CDA0C340EDC04F11404C4F120028E
:1003100020FA04F001FA02F340EA030021FA04F3A0
:1003200045EA030130BDC4F10C04C4F1200220FAF7
:1003300002F001FA04F340EA0300294630BD21FA35
:1003400004F0294630BD94F0000F83F4801306BFFB
:1003500081F480110134013D4EE77FEA645C18BFEF
:100360007FEA655C29D094EA050F08BF90EA020F86
:1003700005D054EA000C04BF1946104630BD91EA7E
:10038000030F1EBF0021002030BD5FEA545C05D181
:100390004000494128BF41F0004130BD14F58004C0
:1003A0003CBF01F5801130BD01F0004545F0FE4134
:1003B00041F470014FF0000030BD7FEA645C1ABF69
:1003C000194610467FEA655C1CBF0B46024650EAA0
:1003D000013406BF52EA033591EA030F41F40021CC
:1003E00030BD00BF90F0000F04BF0021704730B552
:1003F0004FF4806404F132044FF000054FF0000127
:1004000050E700BF90F0000F04BF0021704730B5E7
:100410004FF4806404F1320410F0004548BF4042BC
:100420004FF000013EE700BF42004FEAE2014FEA11
:1004300031014FEA02701FBF12F07F4393F07F4FEC
:1004400081F06051704732F07F4208BF704793F0EF
:100450007F4F04BF41F40021704730B54FF4607402
:1004600001F0004521F000411CE700BF50EA010205
:1004700008BF704730B54FF000050AE050EA0102AE
:1004800008BF704730B511F0004502D5404261EB1E
:1004900041014FF4806404F132045FEA915C3FF45F
:1004A000D8AE4FF003025FEADC0C18BF03325FEAFC
:1004B000DC0C18BF033202EBDC02C2F1200300FAAD
:1004C00003FC20FA02F001FA03FE40EA0E0021FAD2
:1004D00002F11444BDE600BF70B54FF0FF0C4CF4C0
:1004E000E06C1CEA11541DBF1CEA135594EA0C0F72
:1004F00095EA0C0F00F0DEF82C4481EA030621EAAD
:100500004C5123EA4C5350EA013518BF52EA0335E7
:1005100041F4801143F4801338D0A0FB02CE4FF099
:100520000005E1FB02E506F00042E0FB03E54FF0C9
:100530000006E1FB03569CF0000F18BF4EF0010EC1
:10054000A4F1FF04B6F5007F64F5407404D25FEABD
:100550004E0E6D4146EB060642EAC62141EA555170
:100560004FEAC52040EA5E504FEACE2EB4F1FD0CB2
:1005700088BFBCF5E06F1ED8BEF1004F08BF5FEA30
:10058000500E50F1000041EB045170BD06F00046E2
:1005900046EA010140EA020081EA0301B4EB5C048F
:1005A000C2BFD4EB0C0541EA045170BD41F4801187
:1005B0004FF0000E013C00F3AB8014F1360FDEBFAC
:1005C000002001F0004170BDC4F10004203C35DA88
:1005D0000C341BDC04F11404C4F1200500FA05F30B
:1005E00020FA04F001FA05F240EA020001F00042AC
:1005F00021F0004110EBD37021FA04F642EB060122
:100600005EEA430E08BF20EAD37070BDC4F10C044B
:10061000C4F1200500FA04F320FA05F001FA04F20F
:1006200040EA020001F0004110EBD37041F10001FB
:100630005EEA430E08BF20EAD37070BDC4F1200506
:1006400000FA05F24EEA020E20FA04F301FA05F26E
:1006500043EA020321FA04F001F0004121FA04F216
:1006600020EA020000EBD3705EEA430E08BF20EAE6
:10067000D37070BD94F0000F0FD101F00046400020
:1006800041EB010111F4801F08BF013CF7D041EAA2
:10069000060195F0000F18BF704703F000465200A6
:1006A00043EB030313F4801F08BF013DF7D043EA77
:1006B0000603704794EA0C0F0CEA135518BF95EA2D
:1006C0000C0F0CD050EA410618BF52EA4306D1D1B4
:1006D00081EA030101F000414FF0000070BD50EAD3
:1006E000410606BF1046194652EA430619D094EA5D
:1006F0000C0F02D150EA013613D195EA0C0F05D147
:1007000052EA03361CBF104619460AD181EA03019A
:1007100001F0004141F0FE4141F470014FF0000052
:1007200070BD41F0FE4141F4780170BD70B54FF0ED
:10073000FF0C4CF4E06C1CEA11541DBF1CEA13556D
:1007400094EA0C0F95EA0C0F00F0A7F8A4EB05044F
:1007500081EA030E52EA03354FEA013100F0888046
:100760004FEA03334FF0805545EA131343EA12630F
:100770004FEA022245EA111545EA10654FEA0026C4
:100780000EF000419D4208BF964244F1FD0404F57D
:10079000407402D25B084FEA3202B61A65EB0305D9
:1007A0005B084FEA32024FF480104FF4002CB6EB96
:1007B000020E75EB030E22BFB61A754640EA0C0016
:1007C0005B084FEA3202B6EB020E75EB030E22BF56
:1007D000B61A754640EA5C005B084FEA3202B6EB97
:1007E000020E75EB030E22BFB61A754640EA9C0056
:1007F0005B084FEA3202B6EB020E75EB030E22BF26
:10080000B61A754640EADC0055EA060E18D04FEAE3
:10081000051545EA16754FEA06164FEAC30343EA83
:1008200052734FEAC2025FEA1C1CC0D111F4801F50
:100830000BD141EA00014FF000004FF0004CB6E749
:1008400011F4801F04BF01430020B4F1FD0C88BFE8
:10085000BCF5E06F3FF6AFAEB5EB030C04BFB6EBF3
:10086000020C5FEA500C50F1000041EB045170BDE6
:100870000EF0004E4EEA113114EB5C04C2BFD4EB13
:100880000C0541EA045170BD41F480114FF0000E97
:10089000013C90E645EA060E8DE60CEA135594EA13
:1008A0000C0F08BF95EA0C0F3FF43BAF94EA0C0F16
:1008B0000AD150EA01347FF434AF95EA0C0F7FF48B
:1008C00025AF104619462CE795EA0C0F06D152EADF
:1008D00003353FF4FDAE1046194622E750EA4106C3
:1008E00018BF52EA43067FF4C5AE50EA41047FF4D4
:1008F0000DAF52EA43057FF4EBAE12E74A0011D286
:1009000012F5001211D20DD56FF47873B3EB625269
:100910000ED44FEAC12343F0004343EA505323FA75
:1009200002F070474FF00000704750EA013002D1EA
:100930004FF0FF3070474FF00000704730B589B07E
:1009400000240494059406940794204B9A6942F07D
:1009500020029A619A6902F020020192019A9A6932
:1009600042F004029A619A6902F004020292029A29
:100970009A6942F008029A619B6903F008030393A5
:10098000039B134D22463821284601F089FA38236B
:1009900004930123059306940223079304A9284690
:1009A00001F06CF9402304930A4B0593069404A9C3
:1009B000284601F063F922462146172001F02EFC5B
:1009C000172001F063FC09B030BD00BF00100240E9
:1009D000000C01400000111000B583B00A4B5A69A9
:1009E00042F001025A615B6903F001030193019B2C
:1009F000002211460F2001F011FC0F2001F046FCEF
:100A000003B05DF804FB00BF00100240402800D096
:100A1000704708B501F072FC08BD000008B5012858
:100A200014D1104B1B78302B07D0313BDBB2022B9B
:100A300007D80D4B01221A7013E00C4801F06EFC30
:100A40000FE00B490B4801F071FD0AE0064B022252
:100A50001A70044801F0C1FD80B201F009FD01F0F7
:100A600017FD08BD200100201C010020000000200F
:100A70006C270008D40000200268084B9A4200D07E
:100A8000704710B50C461423054A0649064801F084
:100A900041FD2046FFF7C2FF10BD00BF00380140F6
:100AA0002001002090000020D400002072B6FEE754
:100AB00008B50A480A4B03604FF4614343600023C2
:100AC0008360C36003610C2242618361C36100F0F3
:100AD000F9F900B908BDFFF7E9FF00BFD400002015
:100AE0000038014000B591B02822002106A801F08D
:100AF0009DFD002301930293039304930593012228
:100B000006924FF4803307930A9202220D920E93BD
:100B10004FF4E0130F9306A800F0A2FD80B90F2355
:100B2000019302210291002303934FF48062049207
:100B3000059301A800F0C6FF20B911B05DF804FBD1
:100B4000FFF7B4FFFFF7B2FF08B500F04FFDFFF766
:100B5000C9FFFFF7F3FEFFF73FFFFFF7A9FF01F023
:100B6000F3FC1423084A0949094801F0D3FC01F0B9
:100B7000B1FB084B1B78012BFBD1034B1878064BBC
:100B8000187001F0D9FBF4E720010020900000204C
:100B9000D40000201C0100208C000020FEE7FEE7AE
:100BA000FEE7FEE7FEE770477047704708B500F0C4
:100BB0002FFD08BD08B5024801F07CFA08BD00BF52
:100BC0009000002008B5402001F070F908BD000039
:100BD00008B5024800F0BEFA08BD00BFD4000020EE
:100BE00082B00A4B9A6942F001029A619A6902F056
:100BF00001020092009ADA6942F08052DA61DB6900
:100C000003F080530193019B02B070470010024033
:100C100070B586B000230293039304930593026892
:100C2000264B9A4201D006B070BD044603F55843E6
:100C30009A6942F480429A619A6902F48042009271
:100C4000009A9A6942F004029A619B6903F00403D6
:100C50000193019B4FF40073029302230393032338
:100C60000593174E02A9304601F008F84FF480634F
:100C7000029300250395049502A9304600F0FEFF7B
:100C80001048114B0360456085608023C360056197
:100C900045618561C56101F02DF958B9094BE363E0
:100CA0005C6200221146252001F0B8FA252001F0EF
:100CB000EDFAB8E7FFF7FAFEF0E700BF00380140B1
:100CC000000801409000002058000240026802F134
:100CD0000C0353E8003F23F0C0030C3242E800311C
:100CE0000029F3D1202380F841307047026802F1D7
:100CF0000C0353E8003F23F490730C3242E80031B8
:100D00000029F3D1026802F1140353E8003F23F0F5
:100D10000103143242E800310029F3D1036B012BA7
:100D200005D0202380F84230002303637047026817
:100D300002F10C0353E8003F23F010030C3242E8A9
:100D400000310029F3D1ECE790F84130DBB2212BE0
:100D500001D0022070478368B3F5805F17D0036A23
:100D60005A1C02621A7803685A60C38C9BB2013B1A
:100D70009BB2C3844BB90268D36823F08003D3606D
:100D80000268D36843F04003D360002070470369D2
:100D9000002BE4D1036A1B880268C3F30803536085
:100DA000036A02330362E0E710B504460268136980
:100DB00023F44053C1680B431361836802691343F2
:100DC00042691A430168CB6823F4B05323F00C0343
:100DD0001343CB600268536923F4407381690B436A
:100DE00053610268134B9A4220D000F027FF02465D
:100DF00002EB820202EB820263689B00B2FBF3F219
:100E00000D48A0FB02314909642303FB11231B0198
:100E10003233A0FB03235B0903F0F00202EB011263
:100E200003F00F03216813448B6010BD00F016FF20
:100E30000246DDE7003801401F85EB512DE9F843FC
:100E400005460F4616469946DDF820802C68246832
:100E500037EA04030CBF4FF0010C4FF0000CB4450F
:100E60002DD1B8F1FF3FF1D0B8F1000F05D000F05F
:100E7000DBFBA0EB09004045E8D92A6802F10C032E
:100E800053E8003F23F4D0730C3242E800310029CC
:100E9000F3D12A6802F1140353E8003F23F0010361
:100EA000143242E800310029F3D1202385F8413083
:100EB00085F84230002385F84030032000E0002010
:100EC000BDE8F88360B310B5044690F8413013B321
:100ED000242384F841302268D36823F40053D3607C
:100EE0002046FFF761FF2268136923F490431361E2
:100EF0002268536923F02A0353612268D36843F4BC
:100F00000053D36000206064202384F8413084F8CB
:100F10004230606310BD80F84030FFF779FED7E7BC
:100F2000012070472DE9F04182B01E4690F8413013
:100F3000DBB2202B4BD104460D46904600294AD007
:100F40000AB9012044E000234364212380F84130A2
:100F500000F06AFB0746A4F82480A4F82680A36862
:100F6000B3F5805F02D04FF000080FE02369FBB1BA
:100F70004FF000080AE038F8023B2268C3F3080388
:100F80005360E28C92B2013A92B2E284E38C9BB25B
:100F90008BB100963B46002280212046FFF74EFF92
:100FA000D8B9002DE7D015F8012B23685A60E8E77F
:100FB000A8460025EAE700963B460022402120464D
:100FC000FFF73CFF58B9202384F8413000E00220AD
:100FD00002B0BDE8F0810120FAE70320F8E7032022
:100FE000F6E7704708B50168CA6822F04002CA6097
:100FF000202280F84120FFF7F4FF002008BD704751
:101000007047704710B5446A23685A6994F84130B4
:10101000DBB2212B10D023685A6902F0400294F809
:101020004230DBB2222B11D0636C43F010036364B7
:101030002046FFF7E6FF10BD02F08002002AEAD04A
:101040000023E3842046FFF741FEE4E7002AEBD0CB
:101050000023E3852046FFF749FEE5E708B5406A2F
:101060000023C385C384FFF7CCFF08BD90F842304E
:10107000DBB2222B69D18368B3F5805F4FD0826ADF
:10108000B3F5805F04D0002B56D10369002B53D1F8
:1010900003685B681370836A01338362C38D9BB2FC
:1010A000013B9BB2C385002B51D100B583B00268D0
:1010B000D36823F02003D3600268D36823F48073DD
:1010C000D3600268536923F001035361202380F841
:1010D000423000234363036B012B33D100230363AE
:1010E000026802F10C0353E8003F23F010030C32B6
:1010F00042E800310029F3D103681A6812F0100F9A
:1011000006D0002201921A6801925B680193019B4C
:10111000818DFFF7B1FC002003B05DF804FB02698C
:10112000002AACD1826A03685B68C3F308031380AA
:10113000836A02338362B1E703685B6803F07F036D
:101140001370A8E7FFF75BFFE5E702207047002078
:101150007047000030B583B0044602681368D06859
:10116000516913F00F0505D113F0200F02D010F0D4
:10117000200F19D12DB111F0010119D110F4907F78
:1011800016D1216B01297DD013F0800F03D010F010
:10119000800F40F0188113F0400F03D010F0400F83
:1011A00040F0158103B030BD2046FFF75FFFF9E73F
:1011B00013F0010F06D010F4807F03D0626C42F070
:1011C0000102626413F0040F04D019B1626C42F0A2
:1011D0000202626413F0020F04D019B1626C42F093
:1011E0000402626413F0080F07D010F0200F00D142
:1011F00019B1626C42F008026264626C002AD1D0BC
:1012000013F0200F02D010F0200F29D123685B6962
:1012100003F04003626C12F0080F00D163B3204664
:10122000FFF764FD23685B6913F0400F20D022684C
:1012300002F1140353E8003F23F04003143242E864
:1012400000310029F3D1E36B73B1634A5A63E06B59
:1012500000F0E4FE0028A5D0E06B436B9847A1E7BF
:101260002046FFF703FFD1E72046FFF7CAFE99E7C4
:101270002046FFF7C6FE95E72046FFF7C2FE002393
:1012800063648FE713F0100F3FF47EAF10F0100F80
:101290003FF47AAF002301931368019353680193DD
:1012A000019B536913F0400F51D0E26B13685B68E8
:1012B0009BB2002B3FF476AFA18D99427FF672AFBF
:1012C000E3859369202B37D0226802F10C0353E8A1
:1012D000003F23F480730C3242E800310029F3D13F
:1012E000226802F1140353E8003F23F00103143293
:1012F00042E800310029F3D1226802F1140353E8D7
:10130000003F23F04003143242E800310029F3D1BA
:10131000202384F8423000232363226802F10C0367
:1013200053E8003F23F010030C3242E8003100295B
:10133000F3D1E06B00F04FFE02236363A18DE38DD8
:101340009BB2C91A89B22046FFF796FB2AE7A18D06
:10135000E38D9BB2C91A89B2E38D9BB2002B3FF497
:1013600021AF00293FF41EAF226802F10C0353E8BD
:10137000003F23F490730C3242E800300028F3D190
:10138000226802F1140353E8003F23F001031432F2
:1013900042E800300028F3D1202384F842300023B3
:1013A0002363226802F10C0353E8003F23F010038B
:1013B0000C3242E800300028F3D102236363204658
:1013C000FFF75AFBEEE62046FFF7BEFCEAE62046B2
:1013D000FFF708FEE6E600BF5D10000808B5406AAA
:1013E00001234363036B012B02D0FFF709FE08BD05
:1013F000818D4908FFF740FBF9E708B50346406ACD
:101400001B681B6813F0200F2BD10023C3850268D3
:1014100002F10C0353E8003F23F480730C3242E8DE
:1014200000310029F3D1026802F1140353E8003FB0
:1014300023F00103143242E800310029F3D102689D
:1014400002F1140353E8003F23F04003143242E852
:1014500000310029F3D1202380F84230036B012BA7
:1014600007D000234363036B012B0FD0FFF7C7FDA9
:1014700008BD026802F10C0353E8003F23F010039B
:101480000C3242E800310029F3D1EAE7818DFFF701
:10149000F3FAEDE730B583B00446134681628285E6
:1014A00000254564222280F84220C26B1F489062CA
:1014B000E26B1F48D062E26B1E481063E26B55631B
:1014C00020680A46011DE06B00F04AFD0195236883
:1014D0001A6801925B680193019B23695BB12268E2
:1014E00002F10C0353E8003F43F480730C3242E8EE
:1014F00000310029F3D1226802F1140353E8003FC0
:1015000043F00103143242E800310029F3D122688C
:1015100002F1140353E8003F43F04003143242E861
:1015200000310029F3D1002003B030BDFB130008C7
:10153000DD1300080510000890F84230DBB2202BC4
:1015400029D110B582B0044639B312B9012002B0D6
:1015500010BD0123036300234363FFF79BFF0028B3
:10156000F5D1236B012B01D00120F0E7002301937B
:1015700023681A6801925B680193019B226802F15B
:101580000C0353E8003F43F010030C3242E80031F3
:101590000029F3D1DBE7022070470120D7E70000E4
:1015A00010B504460E4B18784FF47A73B3FBF0F382
:1015B0000C4A1068B0FBF3F000F076FE68B90F2C0F
:1015C00001D901200AE0002221464FF0FF3000F04F
:1015D00025FE054B1C60002000E0012010BD00BF6F
:1015E00001000020080000200400002008B5074A80
:1015F000136843F010031360032000F0FDFD0F207B
:10160000FFF7CEFFFFF7ECFA002008BD00200240F4
:10161000034A1168034B1B780B441360704700BFEB
:101620003401002001000020014B1868704700BF02
:101630003401002082B0084B1B68084AA2FB032338
:101640005B0A00FB03F3019300BF019B5A1E01924A
:10165000002BF9D102B0704708000020D34D621072
:10166000002800F0F18170B582B00446036813F0E1
:10167000010F2CD0994B5B6803F00C03042B1DD099
:10168000964B5B6803F00C03082B12D06368B3F52C
:10169000803F41D0002B55D103F1804303F5043343
:1016A0001A6822F480321A601A6822F480221A60C2
:1016B00037E08A4B5B6813F4803FE7D0874B1B68A9
:1016C00013F4003F03D06368002B00F0BF81236850
:1016D00013F0020F75D0814B5B6813F00C0F5FD0D5
:1016E0007E4B5B6803F00C03082B54D02369002B5E
:1016F00000F08A807A4B01221A60FFF795FF0546B9
:10170000764B1B6813F0020F75D1FFF78DFF401B5E
:101710000228F5D903209EE1704A136843F4803310
:101720001360636843B3FFF77FFF05466B4B1B688D
:1017300013F4003FCBD1FFF777FF401B6428F5D9A6
:10174000032088E1B3F5A02F09D0644B1A6822F476
:1017500080321A601A6822F480221A60E1E703F1ED
:101760008043A3F53C331A6842F480221A601A6859
:1017700042F480321A60D4E7FFF756FF0546574B14
:101780001B6813F4003FA2D0FFF74EFF401B6428F4
:10179000F5D903205FE1514B5B6813F4803FA5D17D
:1017A0004E4B1B6813F0020F03D02369012B40F04E
:1017B0004F814A4A136823F0F803616943EAC10381
:1017C0001360236813F0080F33D0A369002B5CD09B
:1017D000434B0122C3F88024FFF726FF05463F4B09
:1017E0005B6A13F0020F21D1FFF71EFF401B022896
:1017F000F5D903202FE1394A136823F0F803616912
:1018000043EAC1031360DCE7354B00221A60FFF79F
:101810000BFF0546314B1B6813F0020FD1D0FFF7C9
:1018200003FF401B0228F5D9032014E10120FFF734
:1018300001FF236813F0040F00F09680274BDB694B
:1018400013F0805F34D1254BDA6942F08052DA61BF
:10185000DB6903F080530193019B0125214B1B6839
:1018600013F4807F26D0E368012B3DD0002B53D1A9
:1018700003F1804303F504331A6A22F001021A626D
:101880001A6A22F004021A6233E0154B0022C3F8F0
:101890008024FFF7C9FE0546104B5B6A13F0020F68
:1018A000C7D0FFF7C1FE401B0228F5D90320D2E0C4
:1018B0000025D3E70B4A136843F480731360FFF7E6
:1018C000B3FE0646074B1B6813F4807FCBD1FFF7AE
:1018D000ABFE801B6428F5D90320BCE00010024059
:1018E00000004242007000405F4A136A43F0010367
:1018F0001362E36833B3FFF797FE06465A4B1B6A41
:1019000013F0020F2FD1FFF78FFE801B41F28833B7
:101910009842F3D903209EE0052B09D0524B1A6A56
:1019200022F001021A621A6A22F004021A62E0E747
:101930004D4B1A6A42F004021A621A6A42F001021E
:101940001A62D6E7FFF770FE0646474B1B6A13F094
:10195000020F08D0FFF768FE801B41F288339842DF
:10196000F3D9032077E0E5B9E369002B72D03E4A52
:10197000526802F00C02082A56D0022B17D03B4BBB
:1019800000221A66FFF750FE0446374B1B6813F01F
:10199000007F47D0FFF748FE001B0228F5D903203F
:1019A00059E0314AD36923F08053D361DCE72F4BF0
:1019B00000221A66FFF738FE05462B4B1B6813F012
:1019C000007F06D0FFF730FE401B0228F5D9032028
:1019D00041E0236AB3F5803F1AD023494B6823F4D2
:1019E0007413226A606A024313434B601F4B012247
:1019F0001A66FFF719FE04461B4B1B6813F0007FA5
:101A00000ED1FFF711FE001B0228F5D9032022E0BA
:101A1000154A536823F40033A1680B435360DCE795
:101A2000002018E0002016E0012B16D00E4B5B685A
:101A300003F48031226A914211D103F47013626A77
:101A400093420ED1002006E001207047012002E001
:101A5000012000E0002002B070BD0120FBE7012062
:101A6000F9E70120F7E700BF001002400000424202
:101A70000F4B5B6803F00C02082A01D00D48704739
:101A8000C3F383420C49885C13F4803F0BD0084BAE
:101A90005B68C3F34043094AD35C064A02FB00F08B
:101AA000B0FBF3F07047064B03FB00F0704700BF3C
:101AB0000010024000127A008027000890270008DA
:101AC00000093D00002800F0A08070B50D460446D6
:101AD000524B1B6803F007038B420BD24F4A13682B
:101AE00023F007030B431360136803F007038B42D3
:101AF00040F08D80236813F0020F17D013F0040F0D
:101B000004D0474A536843F4E0635360236813F0FA
:101B1000080F04D0424A536843F460535360404A6C
:101B2000536823F0F003A1680B435360236813F05C
:101B3000010F31D06368012B20D0022B25D0384A09
:101B4000126812F0020F64D035494A6822F003028D
:101B500013434B60FFF768FD0646314B5B6803F0AB
:101B60000C036268B3EB820F16D0FFF75DFD801B9C
:101B700041F288339842F0D9032045E0284A1268A0
:101B800012F4003FE0D101203EE0254A126812F035
:101B9000007FD9D1012037E0204B1B6803F00703F9
:101BA000AB420AD91D4A136823F007032B43136085
:101BB000136803F00703AB422DD1236813F0040F21
:101BC00006D0174A536823F4E063E1680B4353607F
:101BD000236813F0080F07D0114A536823F46053A9
:101BE000216943EAC1035360FFF742FF0C4B5B6876
:101BF000C3F303130B4AD35CD8400B4B18600B4B59
:101C00001868FFF7CDFC002070BD0120704701204F
:101C1000FAE70120F8E70120F6E700BF00200240C4
:101C20000010024094270008080000200400002053
:101C3000014B1868704700BF0800002008B5FFF787
:101C4000F7FF044B5B68C3F30223034AD35CD8401D
:101C500008BD00BF00100240A427000808B5FFF728
:101C6000E7FF044B5B68C3F3C223034AD35CD8404D
:101C700008BD00BF00100240A427000870B582B064
:101C80000024A446A6E0804DAA4210D007D97F4D7B
:101C9000AA420CD005F58035AA4208D013E0A5F57C
:101CA0008015AA4203D005F57025AA4207D18A689B
:101CB000002A58D0012A51D04361082403E0A5F539
:101CC0008015AA42F3D0BEF1FF0F4ED80646BEF1F2
:101CD000FF0F4CD84FEA8C0233680F25954023EA5A
:101CE000050304FA02F2134333604B6813F0805F7C
:101CF0006ED0674B9A6942F001029A619B6903F0CA
:101D000001030193019B4FEA9C02951C614B53F820
:101D100025600CF003039D000F23AB4026EA030669
:101D20005D4B984229D003F58063984200F08E8085
:101D300003F58063984200F08B8003F5806398423E
:101D400019D004231AE0CC68BDE7CC680434BAE7A4
:101D5000CC680834B7E7CC680C34B4E703610824D6
:101D6000B1E70024AFE70424ADE7061DAFE7ACF10F
:101D700008029200B0E7032300E00023AB403343A6
:101D80000232444D45F822304B6813F4801F61D075
:101D9000424A936843EA0E0393604B6813F4001FB2
:101DA0005ED03E4AD36843EA0E03D3604B6813F417
:101DB000003F5BD0394A536843EA0E0353604B68D7
:101DC00013F4803F58D0354A136843EA0E0313607A
:101DD0000CF1010C0A6832FA0CF353D0012303FA18
:101DE0000CF302EA030E33EA0202F1D14A68122A26
:101DF0003FF649AF122A3FF666AF01A555F822F02B
:101E0000AF1C0008471D0008511D0008631D000895
:101E1000C71C0008C71C0008C71C0008C71C000816
:101E2000C71C0008C71C0008C71C0008C71C000806
:101E3000C71C0008C71C0008C71C0008C71C0008F6
:101E4000C71C00084B1D0008571D0008012395E71B
:101E5000022393E7114A936823EA0E0393609CE7F9
:101E60000E4AD36823EA0E03D3609FE70B4A5368F8
:101E700023EA0E035360A2E7084A136823EA0E031D
:101E80001360A5E702B070BD000022100000311001
:101E90000010024000000140000801400004014021
:101EA0000AB10161704709040161704708B5054B2B
:101EB0005B69034200D108BD024B5861FEF7A6FDE5
:101EC000F9E700BF0004014030B40124056CAC40C8
:101ED000C56B6C60046863604368102B05D00368B1
:101EE00099600368DA6030BC704703689A600368E1
:101EF000D960F8E760B310B402460168154B0B4493
:101F00001548A0FB03031B099B001364134BD36309
:101F1000022382F82130086820F47F5020F030003E
:101F2000536894682343D468234314692343546952
:101F3000234394692343D469234303430B60002064
:101F40009063012382F8213082F8200010BC704792
:101F500001207047F8FFFDBFCDCCCCCC0000024083
:101F600038B5044690F82000012832D0012084F8CA
:101F7000200094F82100C0B2012804D0002384F886
:101F80002030022038BD022084F821000020A06308
:101F90002568286820F0010028602046FFF794FF9C
:101FA000E36A5BB12268136843F00E031360226892
:101FB000136843F0010313600020E3E7226813680D
:101FC00023F0040313602268136843F00A031360CC
:101FD000EDE70220D6E790F82130DBB2022B06D0E5
:101FE00004238363002380F82030012070470268B7
:101FF000136823F00E0313600268136823F00103D3
:102000001360036CC16B012202FA03F34B6080F88A
:102010002120002380F820301846704708B590F83A
:102020002130DBB2022B03D004238363012008BDDF
:102030000268136823F00E0313600268136823F02C
:10204000010313600368194A934214D01432934277
:102050001FD0143293421ED0143293421ED0143239
:1020600093421ED01432934202D04FF0807203E0AC
:102070004FF4801200E001220D4B5A60012380F8DA
:102080002130002380F82030436B6BB1984700204B
:10209000CDE71022F0E74FF48072EDE74FF4805265
:1020A000EAE74FF48032E7E70020C0E7080002408B
:1020B0000000024038B5C36B1A6804682568016CDB
:1020C00004238B40134235D015F0040F32D023681F
:1020D00013F0200F03D1236823F004032360036867
:1020E000434A934214D01432934218D0143293428C
:1020F00017D01432934217D01432934217D01432AF
:10210000934202D04FF0806203E04FF4800200E07F
:102110000422384B5A60C36A03B1984738BD402245
:10212000F7E74FF48062F4E74FF48042F1E74FF4B1
:102130008022EEE702238B4013423CD015F0020FC1
:1021400039D0236813F0200F06D1236823F00A0347
:102150002360012380F821300368254A934214D07C
:10216000143293421CD0143293421BD01432934247
:102170001BD0143293421BD01432934202D04FF042
:10218000007203E04FF4001200E00222194B5A6083
:10219000002380F82030836A002BBFD09847BDE72A
:1021A0002022F3E74FF40072F0E74FF40052EDE71E
:1021B0004FF40032EAE7082303FA01F11142ADD0EF
:1021C00015F0080FAAD0236823F00E032360026CD9
:1021D000C16B012303FA02F24A60836380F8213065
:1021E000002380F82030036B002B97D0984795E7A9
:1021F0000800024000000240074AD36823F4E0636D
:102200001B041B0C000200F4E060034343F0BF63B7
:1022100043F40033D360704700ED00E000B5194B84
:10222000DB68C3F30223C3F1070CBCF1040F28BF22
:102230004FF0040C03F1040EBEF1060F18D9033B56
:102240004FF0FF3E0EFA0CFC21EA0C0199400EFA09
:1022500003F322EA0303194300280BDB0901C9B287
:1022600000F1604000F5614080F800135DF804FB68
:102270000023E5E700F00F000901C9B2024B195431
:10228000F4E700BF00ED00E014ED00E0002807DBFC
:1022900000F01F02400901239340024A42F8203017
:1022A000704700BF00E100E00138B0F1807F0BD241
:1022B0004FF0E0235861054AF02182F823100020F6
:1022C000986107221A6170470120704700ED00E015
:1022D0007047000010B5084C002208212046FFF787
:1022E000DFFD012220212046FFF7DAFD0022102128
:1022F0002046FFF7D5FD10BD000C014010B5064C7F
:10230000012208212046FFF7CBFD002210212046A4
:10231000FFF7C6FD10BD00BF000C014008B50278F4
:10232000C2F10102D2B2027020210248FFF7B8FDCB
:1023300008BD00BF000C014038B5322833D0332827
:1023400060D0312800D038BD002210214548FFF769
:10235000A7FD4FF47A74444B5D68FFF769FC43496D
:10236000A1FB0031890C01FB04F43F4B5B685B1B54
:10237000621A9342F9D3012210213A48FFF790FDE7
:102380004FF47A74384B5D68FFF752FC3749A1FB74
:102390000031890C01FB04F4334B5B685B1B621A50
:1023A0009342F9D3CFE7002210212E48FFF778FDA2
:1023B00040F2EE242C4B5D68FFF73AFC2B49A1FB61
:1023C0000031890C01FB04F4274B5B685B1B621A2C
:1023D0009342F9D3012210212248FFF761FD40F218
:1023E000EE24214B5D68FFF723FC2049A1FB00315F
:1023F000890C01FB04F41C4B5B685B1B621A934263
:10240000F9D3A0E7002210211648FFF749FD4FF449
:10241000FA74154B5D68FFF70BFC1449A1FB003102
:10242000890C01FB04F4104B5B685B1B621A93423E
:10243000F9D3012210210B48FFF732FD4FF4FA7453
:10244000094B5D68FFF7F4FB0849A1FB0031890CDB
:1024500001FB04F4044B5B685B1B621A9342F9D3E3
:1024600071E700BF000C0140001000E083DE1B4359
:1024700008B5FDF7C7FF04A3D3E90023FEF756F91B
:10248000FEF73CFA80B208BDCDCCCCCCCCCCFC3F26
:10249000F8B50546FFF732FFFFF71CFF0024AC42FA
:1024A00030D2002210211848FFF7FAFC4FF4FA76D8
:1024B000164B5F68FFF7BCFB1549A1FB0031890C87
:1024C00001FB06F6114B5B68DB1B721A9342F9D3D2
:1024D000012210210C48FFF7E3FC4FF4FA760B4B76
:1024E0005F68FFF7A5FB0A49A1FB0031890C01FBDE
:1024F00006F6064B5B68DB1B721A9342F9D3013474
:10250000A4B2CCE7F8BD00BF000C0140001000E011
:1025100083DE1B4310B50C4611461A46FFF70CF834
:102520002268136823F00403136010BD38B5054614
:102530000C460846FDF70CFE642382B2214628466D
:10254000FEF7F0FC38BD0000104BD3F8FC2022F061
:102550008072C3F8FC20D3F8FC2042F08072C3F8EC
:10256000FC20A3F55D431A6822F001021A601A6884
:1025700042F001021A6000225A6000BF00BF00BF93
:102580005B680BB1104670470120704700ED00E01A
:10259000FFF79EFE0B480C490C4A002302E0D4587A
:1025A000C4500433C4188C42F9D3094A094C00239F
:1025B00001E013600432A242FBD300F013F8FEF7EF
:1025C000C3FA70470000002070000020B8280008FF
:1025D0007000002038010020FEE70A22002100F0F0
:1025E000A9B8000070B500260C4D0D4C641BA4105A
:1025F000A64209D100F0AEF800260A4D0A4C641B31
:10260000A410A64205D170BD55F8043B9847013689
:10261000EEE755F8043B98470136F2E7B02800088A
:10262000B0280008B0280008B42800080346024477
:10263000934200D1704703F8011BF9E7012B2DE904
:10264000F047804601D0242B06D900F07DF81623F0
:1026500003600020BDE8F0870D46354F284615F889
:10266000014BE65D16F00806F8D12D2C2FD101267E
:102670002C78851C002B57D0102B09D1302C07D17A
:10268000287800F0DF00582849D110236C780235F3
:10269000002706F1004E0EF1FF3EBEFBF3F938466F
:1026A00003FB19EAA4F1300CBCF1090F14D86446FD
:1026B000A34222DD002F1DDB81451BD301D1A245A2
:1026C00018DB012700FB034015F8014BEAE72B2C30
:1026D00004BF2C78851CCDE7A4F1410CBCF1190F87
:1026E00001D8373CE4E7A4F1610CBCF1190F04D820
:1026F000573CDDE74FF0FF37E6E7002F07DA2223EC
:102700007046C8F80030002AA4D0691E05E006B162
:102710004042002A9ED0002FF7D111609AE7302462
:10272000002BB5D10823B3E7302CA9D00A23AFE79B
:10273000AD27000813460A46014602480068FFF725
:102740007DBF00BF0C000020014B1868704700BF20
:102750000C000020F8B500BFF8BC08BC9E467047CE
:0C276000F8B500BFF8BC08BC9E467047EE
:10276C00496E76616C696420636F6D6D616E640D8A
:10277C000A00000002030405060708090A0B0C0DE9
:10278C000E0F1010010200000000000000000000FD
:10279C0001020304060708090000000001020304FB
:1027AC000020202020202020202028282828282015
:1027BC00202020202020202020202020202020200D
:1027CC002088101010101010101010101010101075
:1027DC001004040404040404040404101010101065
:1027EC00101041414141414101010101010101012F
:1027FC000101010101010101010101011010101081
:10280C001010424242424242020202020202020200
:10281C000202020202020202020202021010101054
:10282C00200000000000000000000000000000007C
:10283C00000000000000000000000000000000008C
:10284C00000000000000000000000000000000007C
:10285C00000000000000000000000000000000006C
:10286C00000000000000000000000000000000005C
:10287C00000000000000000000000000000000004C
:10288C00000000000000000000000000000000003C
:10289C00000000000000000000000000000000002C
:0428AC000000000028
:0428B00035010008E6
:0428B4001101000806
:1028B80001010000100000000024F40010000020B6
:1028C8000000000000000000000000000000000000
:1028D80000000000000000000000000000000000F0
:1028E80000000000000000000000000000000000E0
:1028F80000000000000000000000000000000000D0
:1029080000000000000000000000000000000000BF
:1029180000000000000000000000000000000000AF
:040000050800259139
:00000001FF
